:020000040800F2
:10000000D8370020450100086917000801170008CB
:1000100065170008631000080B2E000800000000A0
:10002000000000000000000000000000F1210008B6
:100030000D11000800000000F91F0008F928000851
:100040005F0100085F0100085F0100085F01000810
:100050005F0100085F0100085F0100085F01000800
:100060005F0100085F0100085F0100085F010008F0
:100070005F0100085F0100085F0100085F010008E0
:100080005F0100085F0100085F0100085F010008D0
:100090005F0100085F0100085F0100085F010008C0
:1000A0005F0100085F0100085F0100085F010008B0
:1000B0005D290008712A00085F0100085F0100083F
:1000C0005F0100085F0100085F0100085F01000890
:1000D0005F0100085F010008F92B00085F010008BC
:1000E0005F0100085F0100085F0100085F01000870
:1000F0005F0100085F0100085F0100085F01000860
:100100005F0100085F0100085F0100085F0100084F
:100110005F0100085F0100085F0100085F0100083F
:100120005F0100085F0100085F0100085F0100082F
:10013000DFF80CD000F0EEFE00480047553D000807
:10014000D83700200648804706480047FEE7FEE70C
:10015000FEE7FEE7FEE7FEE7FEE7FEE7FEE7FEE777
:10016000FD28000831010008A0F14101192900D83B
:100170002030704740EA01039B0703D009E008C91B
:10018000121F08C0042AFAD203E011F8013B00F85C
:10019000013B521EF9D27047D2B201E000F8012BA8
:1001A000491EFBD270470022F6E710B513460A46F7
:1001B00004461946FFF7F0FF204610BD421C10F818
:1001C000011B0029FBD1801A704710B5002200E006
:1001D000521C835C8C5CA34201D1002BF8D1D8B2B5
:1001E000E1B2401A10BD30B505460020034600E0DC
:1001F0005B1C934205D2EC5CC85C201A01D1002C38
:10020000F6D130BD70B50F4D00B92868002412E05A
:100210000A4602E09E4203D0521C1378002BF9D10B
:10022000DAB2224305D02BB124B1002100F8011B22
:1002300004E00446401C0678002EE9D128602046E0
:1002400070BD0000B80100202DE9FF4F087883B091
:100250009946FF2805D0491C2D2804D000240020F1
:1002600008E000200BE00124F9E700EB800003EB3D
:100270004000491C0B78FF2BF7D104B1404200230A
:100280000293147819461D462D2C01D02B2C04D135
:10029000521C2D2C13D000240294AA461478FF2C53
:1002A0000FD00A25A3FB057801FB05814FF0000C58
:1002B00003FB0C11521CE3194AEB0101EEE7012488
:1002C000EAE7814453EA010002D019F5C87F06DA53
:1002D00003980021C0E9001107B0BDE8F08F0025A8
:1002E000AE4E2F46DFF8B882184600F0EFFDCDE99C
:1002F0000001B9F1000002DAC9F1000400E004468F
:100300000023A74A1AEB030B42EB045A12E0E00762
:1003100007D02A4633463846414600F083FA07465E
:1003200088462A4633461046194600F07BFA0546B1
:100330000E466410002CEAD1DDE90001B9F1000F8E
:100340005A46534606DA00F0DFFA3A46434600F0D2
:10035000DBFA05E000F066FA3A46434600F062FA3E
:10036000029A0AB181F00041039AC2E90001B3E7A1
:100370002DE9FF4F1F468DB0D7E901464FF0FF38FA
:100380002E2045464FF000090B90B9696D1C0E9860
:100390008847396A824688470028F6D1BAF1FF3F7C
:1003A0000AD024F4D064002E11DDBAF12B0F08D04E
:1003B000BAF12D0F0BD102E0404611B08DE744F4A5
:1003C0008064B9696D1C0E9888478246761E69461E
:1003D000600501D52D2000E02B208DF8000001F1F3
:1003E000010B0DF1200809E0B9696D1C0E988847D2
:1003F00082460F9844F40074761E0560002E02DDDC
:10040000BAF1300FF0D00B998A453ED144F0800408
:1004100006E00F99681CA9F1010944F40074086012
:10042000B9696D1C761E0E98884782463028F0D038
:100430002BE00B998A4505D1200603D444F08004B3
:10044000761E18E0504602F039FF08B30DF1130193
:10045000761E44F400748B4508D2AAF130000BF8E4
:10046000010B200607D5A9F1010003E0200602D404
:1004700009F101008146A00502D50F99681C0860AA
:10048000B9696D1C0E9888478246002ED1DC53E076
:10049000002E51DDBAF1650F02D0BAF1450F4BD1F4
:1004A000A00549D5B9696D1C24F44074761E0E98D8
:1004B00088478246002E0CDD2B2804D0BAF12D0F80
:1004C00007D144F48074B9696D1C0E988847824640
:1004D000761EE00501D52D2100E02B2108F8011B37
:1004E000CDF82C8021E00DF12901761E44F4007432
:1004F00088450CD2AAF1300010F0FF0088F8000007
:1005000002D10B99884509D908F1010806E0E005F8
:1005100001D5244801E042F20F708146B9696D1C93
:100520000E98884782460F980560002E04DD5046DD
:1005300002F0C4FE0028D6D1F9690E988847FF2042
:100540008BF8000088F800000020069007904B46CA
:100550006A4608A906A8FFF777FEA00502D46FF047
:1005600001002AE714F0240F0AD0E00714D1DDE9D6
:1005700006123868031D3B600068C0E900120BE0FA
:10058000DDE9060100F0CAFA0146E00704D1386847
:10059000021D3A600068016028460EE70000144022
:1005A0000000F03FF1D8FFFF70B5064602F05AFD9B
:1005B000046805460A220021304600F0BBFB2C608F
:1005C00070BDF0B480EA0102D40F4200B2EB410FDB
:1005D00002D20246084611464A0042D0C30DDDB29F
:1005E000C1F3C752AD1A202D35DAC1F3160141F41B
:1005F000000204B15242C5F1200602FA06F12A4176
:100600001044B3EBD05F23D0C4B1012DA0EBC35095
:1006100009DCF0BC4FF0004202EAC352DBB200F545
:10062000000000F0C8BB400000F1807000EBC35038
:10063000A0F1807040EAD170490009E0490841EA20
:10064000C071A0EBC35000F50000400800EBC350A0
:10065000F0BC00F0A7BB6142012202EB4101001B8C
:10066000F6E7F0BC704781F00041AAE780F0004057
:10067000A7E780EA010210B502F00043400022D053
:100680004A001FD0010E01EB1261C0F35600C2F305
:10069000560240F4000042F40002A0FB02200004D5
:1006A0007F39140400D0401C50EA124001D44000AD
:1006B000491EC2B20C0604EBD010401C4008802A30
:1006C00002D003E0002010BD20F00100002900DA74
:1006D0000020184310BD2DE9FE4F804681EA03003B
:1006E000C00F0C46009021F0004123F00045B8EB0C
:1006F0000200A94105D24046214690461C460B46C1
:10070000024623F00040104347D0270DC7F30A00EC
:10071000C3F30A510290401A019040286BDAC3F3E8
:10072000130040F4801B0098924620B10023D2EBC6
:10073000030A63EB0B0B01985946C0F14002504687
:1007400000F059FA06460D4650465946019A00F007
:1007500071FA10EB08006141002487EA115284EA23
:10076000E7731A4340D0009A62B3019A012A4FEA14
:10077000075215DC001B61EB02014FF0004202EA58
:100780000752CDE90042001C41F5801132462B464C
:1007900000F04EFB03B0BDE8F08F40462146F9E77C
:1007A000001B61EB0201001C41F5801300185B4146
:1007B0002018A2F5001747EB030140EAD570B619DF
:1007C0006D4111E06D084FEA360645EAC0754FEA03
:1007D0000752001B61EB0201001C41F58011490822
:1007E0004FEA30000019514132462B4603B0BDE8B4
:1007F000F04F00F00EBB0098012240000023D0EB28
:10080000020263EBE073009821464FEAE074B8EB14
:10081000000061EB0401E9E783F000435BE781F04E
:10082000004158E72DE9FE4F81EA030404F000443B
:1008300021F0004100944FF0000B23F0004350EAF8
:1008400001045ED052EA03045BD0C3F30A54C1F33F
:100850000A552C44A4F2F3340194A0FB0254C1F3D2
:10086000130141F48011C3F3130343F4801301FB1C
:10087000024400FB034E840A970A44EA815447EA83
:100880008357A4FB076802958D0A05FB07854FEA8D
:10089000932C04FB0C542705029D4FEA065847EAA7
:1008A0001637B5EB08056EEB070C870E920E47EA7C
:1008B000811742EA8312A7FB0201B6EB0B0164EB3E
:1008C00000042B0D43EA0C335E1844EB1C50DA464F
:1008D0005146E7FB0201C5F313044FEA0B3343EA29
:1008E00014534FEA0432019C43EA0603A4F10C04BA
:1008F0000294009CCDE900B400F09AFA03B0BDE880
:10090000F08F00200146F9E72DE9F04D81EA03045C
:1009100004F0004B21F0004514464FF0000A23F08C
:10092000004150EA050220D054EA01021DD0C5F36F
:100930000A570246C5F31303C1F31300C1F30A5665
:1009400040F4801543F48013A7EB0608101BD6462D
:1009500008F2FD3873EB050002D308F1010801E04D
:1009600092185B41B8F1000F03DA00200146BDE8A0
:10097000F08D00204FF48011064684460EE0171BD0
:1009800073EB050705D3121B63EB050306434CEA23
:10099000010C49084FEA300092185B4150EA010708
:1009A000EDD152EA030012D082EA040083EA050185
:1009B000084305D0101BAB4106D20122002306E0FC
:1009C00000224FF0004302E06FF0010253101AEBD7
:1009D00006004CEB085110EB0A0041EB0B01BDE89F
:1009E000F04D00F016BAC10F80EAE0700844CA0763
:1009F0009623002100F0DFB996230022114600F073
:100A0000DAB90EB5C10F80EAE0700844CA070021C8
:100A100040F233438DE80E000A460B4600F008FA18
:100A200003B000BD00F0004220F00040C10DC0F353
:100A3000160040F400007F2901DA00207047962953
:100A400003DCC1F19601C84001E096398840002AD4
:100A5000F4D04042704720F00040C10DC0F31600B2
:100A600040F400007F2901DA00207047962903DC5A
:100A7000C1F19601C840704796398840704770B5FB
:100A8000C1F30A5201F000450024C1F3130140F202
:100A9000FF3341F480119A4201DA002070BD40F228
:100AA00033439A42A2F2334203DC524200F0B2F8DE
:100AB00000E090402C43F1D0404270BD30B5041EA0
:100AC00071F1000404DB4FF00044404264EB01018B
:100AD000141E73F1000405DB1C464FF00043524224
:100AE00063EB04038B4208BF824230BD30B5041E65
:100AF00071F1000404DB4FF00044404264EB01015B
:100B0000141E73F1000405DB1C464FF000435242F3
:100B100063EB0403994208BF904230BD01F00043EB
:100B200030B421F0004150EA010206D00A0DA2F5CE
:100B30006072C1F31301002A02DC30BC0020704750
:100B4000440F44EAC104C100E01830BC00EBC250BD
:100B500000F028B9002801DBC0F10040002901DBCA
:100B6000C1F100418142704730B50B46014600207B
:100B70002022012409E021FA02F59D4205D303FA5F
:100B800002F5491B04FA02F52844151EA2F10102E0
:100B9000F1DC30BD2DE9F05F0546002092469B4612
:100BA00088460646814640241BE028464146474683
:100BB000224600F02FF853465A46C01A914110D3EE
:100BC00011461846224600F016F82D1A67EB010868
:100BD0004F4622460120002100F00DF817EB0009D6
:100BE0004E41201EA4F10104DFDC484631462A466E
:100BF0004346BDE8F09F202A04DB203A00FA02F1C8
:100C0000002070479140C2F1200320FA03F31943FA
:100C100090407047202A04DB203A21FA02F000219C
:100C2000704721FA02F3D040C2F1200291400843FC
:100C300019467047202A06DBCB17203A41FA02F00A
:100C400043EAE07306E041FA02F3D040C2F1200229
:100C50009140084319467047426842B1016811F853
:100C6000013B23B1521EC0E9001218467047012112
:100C7000C160881E704742685AB1C368016843B9B1
:100C800083688B4205D0491E521CC0E90012002027
:100C900070474FF0FF3070470FB4002300B589B0A4
:100CA0000CA900910B996FF00042CB601E4B06938C
:100CB0001E4B07930423CDE901321D4A08920246D8
:100CC0006B460020FFF754FB09B05DF814FB70B5CC
:100CD00086B006464FF0FF300091CDE901010020BB
:100CE00015460C4604903246694604A8FFF7D4FF27
:100CF00002460498211825B108B1084600E02046B4
:100D00002860049800280DD0002A02DD009888424F
:100D100008D0081B0094CDE901043246694604A8B6
:100D2000FFF7BAFF06B070BD590C0008770C000839
:100D3000410F00082DE9F04791460F4680460446D2
:100D4000002614F8015B2DB100F0F6F80068405D54
:100D5000C007F6D12B2D02D02D2D18D0641E4A4687
:100D60003946204600F0F5F827B13968A14201D193
:100D7000C7F8008071054FF002040BD540420028EF
:100D800003DD02F06FF90460A007BDE8F08746F4C8
:100D90008066E4E70028F8DA02F064F904606FF096
:100DA0000040F2E70029A8BF7047401C490008BF77
:100DB00020F00100704710B4B0FA80FC00FA0CF08B
:100DC00050EA010404BF10BC704749B1CCF12004C3
:100DD00021FA04F411FA0CF118BF01212143084350
:100DE000A3EB0C01CB1D4FEA00614FEA102042BF7C
:100DF000002010BC704700EBC35010440029A4BF72
:100E000010BC7047401C490008BF20F0010010BC16
:100E1000704710B5141E73F1000408DA401C41F14C
:100E2000000192185B411A4301D120F0010010BD6E
:100E30002DE9F04D92469B4611B1B1FA81F202E0E4
:100E4000B0FA80F220329046FFF7D5FE04460F46F6
:100E500040EA0A0041EA0B0153465A46084313D0C0
:100E6000114653EA010019D0C8F140025046FFF77D
:100E7000D1FE05460E46504659464246FFF7BBFE98
:100E8000084305D0012004E020463946BDE8F08D36
:100E90000020054346EAE0762C4337430A98630571
:100EA000E40AA0EB08000022FD0A44EA47540A3095
:100EB00002D500200146E9E7010510196941DDE985
:100EC000084500196941BDE8F04DA2E70EB540F2B2
:100ED000334202920022CDE900221346FFF7A8FF19
:100EE00003B000BDC1F30A52C1F3130140F2FF3356
:100EF00041F480119A4202DA00200146704740F224
:100F000033439A42A2F2334202DC5242FFF782BEDE
:100F1000FFF771BE064C074D06E0E06840F00103A4
:100F200094E8070098471034AC42F6D3FFF704F971
:100F3000447000086470000800487047546F00084F
:100F400010B50446FFF7F8FF0068005D00F00100EF
:100F500010BD2DE9F05F82460078002715468B46CC
:100F60000AF10104B946302801D09DB113E014F80C
:100F7000010B0127782803D0582801D045B10AE099
:100F80000DB1102D07D10027102514F8010B02E038
:100F9000082500E00A250026B0460EE005FB080003
:100FA00005FB06F1012701EB10461FFA80F8B6F5A4
:100FB000803F00D3B94614F8010B294600F018F819
:100FC0000028EBDABBF1000F05D00FB1641E00E082
:100FD0005446CBF80040B9F1000F06D002F042F8B9
:100FE00002210160C81EBDE8F09F48EA0640FAE70A
:100FF0003A2800D2303820F02002412A01D3A2F151
:101000003700884201D34FF0FF30704770B58C181D
:1010100010F8015B15F0070301D110F8013B2A110C
:1010200006D110F8012B03E010F8016B01F8016BF9
:101030005B1EF9D12B0705D40023521E0DD401F8F5
:10104000013BFAE710F8013BCB1A921C03E013F8BE
:10105000015B01F8015B521EF9D5A142D8D30020F3
:1010600070BD00BFFEE700002DE9F04198B00446D6
:101070000E461746302224490CA8FFF77BF8302291
:10108000214930316846FFF775F8611E642291FBF3
:10109000F2F2601EC11700EB91718B10611E40F2DD
:1010A0006D1C01FB0C318A1A611E4FF4C87391FB51
:1010B000F3F15518E11704EB91718910A4EB81014C
:1010C00029B9642194FBF1F201FB124131B94FF4CB
:1010D000C87194FBF1F201FB124121B9701E5DF859
:1010E0002000054404E0701E0CA951F820000544BE
:1010F0003D44072095FBF0F100FB115000F0FF0884
:10110000404618B0BDE8F081A447000870470000D1
:1011100000B587B00121042000F0F0FF0121480450
:1011200000F0DCFF0420ADF8180003208DF81A0051
:1011300018208DF81B0006A9234800F04DF8082060
:10114000ADF8180004208DF81B0006A91E4800F019
:1011500043F826208DF8040000208DF805000120BA
:101160008DF806008DF8070001A800F0FFFA4FF493
:10117000E13002900020ADF80C00ADF80E00ADF8A3
:101180001000ADF814000C20ADF8120002A90F48B1
:1011900001F0C6FD012240F225510C4801F09AFDF4
:1011A00001210A4801F060FD41F61F4140F2E7309D
:1011B00001F078FC0020064908800021054801F074
:1011C000A0FC07B000BD0000000801400044004042
:1011D00000000020000400402DE9F04102460025F7
:1011E0000026002000230024002791F803C00CF003
:1011F0000F0591F803C00CF0100CBCF1000F03D0E8
:1012000091F802C04CEA050591F800C0BCF1000F4E
:1012100031D0146800202BE04FF0010C0CFA00F3E1
:10122000B1F800C00CEA03069E4220D183004FF0C3
:101230000F0C0CFA03F7BC4305FA03FC4CEA040458
:1012400091F803C0BCF1280F06D14FF0010C0CFA45
:1012500000FCC2F814C00AE091F803C0BCF1480FCA
:1012600005D14FF0010C0CFA00FCC2F810C0401C74
:101270000828D1D31460B1F800C0BCF1FF0F34DDF1
:10128000546800202EE000F1080C4FF0010808FA25
:101290000CF3B1F800C00CEA03069E4221D1830092
:1012A0004FF00F0C0CFA03F7BC4305FA03FC4CEAB1
:1012B000040491F803C0BCF1280F05D100F1080C1B
:1012C00008FA0CF8C2F8148091F803C0BCF1480F7A
:1012D00007D100F1080C4FF0010808FA0CF8C2F829
:1012E0001080401C0828CED35460BDE8F0814161D5
:1012F00070470161704700002DE9F84F00F070FE63
:10130000642001F0E1FE83460A2001F0DDFE484939
:1013100008600A2001F0D8FE4549486045A003F066
:101320003BF948480368484848A10268584601F01C
:1013300085FE00BF64224CA1584603F0FBF800284C
:10134000F8D100BF64224AA14AA003F0F3F80028B4
:10135000F8D100BF64224BA14BA003F0EBF80028AA
:10136000F8D14D48006800904C4803684C484D49FE
:101370000268584601F062FE00BF64224AA1584646
:1013800003F0D8F80028F8D1584601F06FFE48481D
:1013900002F0AAFB061E32D046A1304602F08EFBB8
:1013A000071E2CD00021384602F07CFBB0F100086B
:1013B00025D042A1404602F081FBB0F100090DD0DA
:1013C00041A1484602F07AFB00691949086040A132
:1013D000484602F073FB0069154948603EA140464B
:1013E00002F06CFBB0F1000A09D03CA1504602F0BB
:1013F00065FB04693BA1504602F060FB056920468D
:10140000FFF7D2F80A4908722846FFF7CDF80849D5
:10141000487200F0EDFF01F02DF801F055FA30466A
:1014200002F014FB0020324948704870BDE8F88F84
:10143000CC03002041542B434950434C4F53450D9E
:101440000A000000180000201400002041542B4323
:10145000495053544152543D22544350222C22258A
:1014600073222C25730D0A00414C5245414459000A
:101470004F4B000041542B4349504D4F44453D31A3
:101480000D0A00003E00000041542B4349505345D3
:101490004E440D0A0000000024000020200000201F
:1014A0001C000020586F0008726573756C74000092
:1014B000C8010020726573756C7473006C6F636192
:1014C00074696F6E000000006E616D6500000000C1
:1014D000636F756E747279006E6F7700636F646509
:1014E0000000000074656D7065726174757265004E
:1014F00008000020F0B589B0002008900690079001
:10150000039004900590009001900290642001F0F7
:10151000DBFD074600F064FD44A003F03DF84748BA
:101520000368474847A10268384601F087FD00BFBD
:1015300064224BA1384602F0FDFF0028F8D100BF1D
:10154000642249A149A002F0F5FF0028F8D100BFAC
:1015500064224AA14AA002F0EDFF0028F8D13848E1
:101560004BA10268384601F069FD00BF642258A112
:10157000384602F0DFFF0028F8D1384601F076FD4A
:1015800056A1594802F000FC0646304602F0ACFA7B
:10159000051E04D04EA1284602F090FA046908AB5B
:1015A00006AA52A1204603F02FF808AB03AA50A1C7
:1015B000079803F029F80398FEF7F6FF4D490870E5
:1015C0000498FEF7F1FF4B4948700598FEF7ECFFD1
:1015D0004849887008AB6A4647A1069803F014F89A
:1015E0000098FEF7E1FF434908810198FEF7DCFF10
:1015F000404948810298FEF7D7FF3E4988810B4653
:101600009A8959891889FFF72FFD3A49C8702846E9
:1016100002F01CFA40F21F3142F20F7001F0FAF9A9
:1016200000203649087009B0F0BD000041542B433A
:101630004950434C4F53450D0A000000180000204C
:101640002800002041542B43495053544152543DEB
:1016500022544350222C222573222C25730D0A007C
:10166000414C5245414459004F4B000041542B43DB
:1016700049504D4F44453D310D0A00003E000000E9
:1016800041542B43495053454E440D0A000000007D
:10169000474554202F67657453797354696D652EDF
:1016A000646F20485454502F312E310D0A486F7307
:1016B000743A2025730D0A436F6E6E656374696F0B
:1016C0006E3A20636C6F73650D0A0D0A000000000E
:1016D00073797354696D6532000000007B22737961
:1016E0007354696D65322200C8010020200000009B
:1016F0003A000000BC0300202D000000080000207C
:1017000000BFFEE710B580210748FFF7F2FD20215A
:101710000548FFF7EEFD80210348FFF7E8FD202193
:101720000148FFF7E4FD10BD0008014010B520217D
:101730000548FFF7DEFD80210348FFF7D8FD802133
:101740000148FFF7D6FD10BD0008014010B520216B
:101750000348FFF7CEFD20210148FFF7C8FD10BD6B
:101760000008014000BFFEE77047000070B500218F
:1017700000230F22C47804B3154C246804F4E064F9
:10178000C4F5E064210AC1F10403CA40447804FAB4
:1017900003F184781440214309010E4C0678A155C9
:1017A000047804F01F050124AC4005786D11AD00EC
:1017B00005F1E025C5F8004109E0047804F01F05B3
:1017C0000124AC40044D0678761145F8264070BDE2
:1017D0000CED00E000E400E080E100E070B50024E2
:1017E0000CE0002506E00020074901EBC501085583
:1017F000681CC5B2802DF6DB601CC4B2082CF0DB7F
:1018000000F0CAF970BD0000D803002070B50B4687
:10181000CE1701EB5676C6F3C702CE1701EB56760C
:10182000F610A1EBC606F4B20123A340DDB20E4BC5
:1018300003EBC0039B5CDB430B4E06EBC006B354CB
:10184000094B03EBC0039B5C2B43074E06EBC00622
:10185000B354054B03EBC0039B5CDB43024E06EB2A
:10186000C006B35470BD0000D803002010B5044674
:101870001CB90021A62000F097FB012C03D1002108
:10188000A72000F091FB10BD10B504463CB9002123
:10189000C82000F089FB0021A12000F085FB012C6D
:1018A00007D10021C02000F07FFB0021A02000F024
:1018B0007BFB10BD2DE9F84F05460E4617469846AE
:1018C000002D0ADB802F08DC002E06DBB8F1400F6C
:1018D00003DCBD4201DC464501DDBDE8F88FBD42B9
:1018E0000DD1002406E03019C1B2284600F03AF8C4
:1018F000601CC4B2A8EB0600A042F4DC30E0464510
:101900000CD1002406E02919C8B2314600F02AF8AB
:10191000601CC4B2781BA042F5DC21E0A8EB0600F5
:1019200000F0FF0A781B00F0FF0B0AEB8A00400072
:1019300090FBFBF000F0FF0900240EE004FB09F02F
:101940000A2190FBF1F03044C0B229190090C8B2CE
:10195000009900F007F8601CC4B2781BA042EDDCCF
:1019600000BFBAE770B50A46CE1701EB5676C6F34C
:10197000C703CE1701EB5676F610A1EBC606F4B2FC
:101980000122A240D5B2054A02EBC002D25C2A4332
:10199000024E06EBC006F25470BD0000D8030020D2
:1019A000F0B505460E4617461C4623462A463146E4
:1019B0002846FFF77FFF23463A4621462846FFF791
:1019C00079FF33463A4631462846FFF773FF601CDD
:1019D000C3B23A4631463846FFF76CFFF0BD00000F
:1019E0002DE9F84F06460F4690469946464501DADE
:1019F0004F4501DBBDE8F88F354626E03C4620E048
:101A00002046E11704EB5171C1F3C70AE11704EB5B
:101A10005171C910A4EBC10101F0FF0B012000FAC4
:101A20000BF0C0B200900C4800EBC50010F80A1093
:101A300000980143084800EBC50000F80A10601C3C
:101A4000C4B24C45DCDD681CC5B24545D6DD00F0AE
:101A5000A3F800BFCEE70000D803002008B501219D
:101A6000042000F04BFBA020ADF8000010208DF802
:101A7000030003208DF8020069464048FFF7ACFBE5
:101A8000A0213E48FFF735FC0021AE2000F08CFA83
:101A90000021084600F088FA0021102000F084FAA6
:101AA0000021402000F080FA0021812000F07CFA23
:101AB0000021CF2000F078FA0021A12000F074FA74
:101AC0000021C82000F070FA0021A62000F06CFA76
:101AD0000021A82000F068FA00213F2000F064FAFD
:101AE0000021D32000F060FA0021084600F05CFAE3
:101AF0000021D52000F058FA0021802000F054FA8F
:101B00000021D92000F050FA0021F12000F04CFA19
:101B10000021DA2000F048FA0021122000F044FAF7
:101B20000021DB2000F040FA0021402000F03CFAC8
:101B30000021202000F038FA0021022000F034FAC1
:101B400000218D2000F030FA0021142000F02CFA42
:101B50000021A42000F028FA0021A62000F024FA99
:101B60000021AF2000F020FAFFF738FE0120FFF738
:101B70008BFE0020FFF77AFE08BD00000008014040
:101B800010B50246012000E050430B1EA1F10104F4
:101B9000E1B2F9D110BD000070B500241CE004F1E1
:101BA000B001C8B2002100F0FFF90021084600F0A2
:101BB000FBF90021102000F0F7F9002508E00849A2
:101BC00001EBC501085D012100F0EEF9681CC5B20A
:101BD000802DF4DB601CC4B2082CE0DB70BD00007B
:101BE000D80300202DE9FF4F81B080460E461C46E9
:101BF00000962046E31704EB5373DB1021464FEAAF
:101C0000E47C04EB5C7C4FEAEC0CA4EBCC0CBCF168
:101C1000000F02D04FF0010C01E04FF0000C6344C4
:101C2000224604EBD27C4FEA6C0C03FB0CF303F06E
:101C3000FF0B03982038C7B2002547E00C2C07D1D2
:101C400007EB4700234901EB800010F805A014E0E2
:101C5000102C05D1204800EB071010F805A00CE06F
:101C6000182C07D107EBC7001C4901EB800010F8C6
:101C700005A002E005B0BDE8F08F4FF000091FE0BD
:101C80000AF0800020B131464046FFF76BFE03E0CA
:101C900031464046FFF7BAFD4FEA4A604FEA106A04
:101CA000701CC6B20098301AA04205D1009E08F1FF
:101CB000010000F0FF0806E009F1010000F0FF0953
:101CC000B9F1080FDCDB00BF681CC5B25D45B5DBB0
:101CD00000BFCFE704480008784C000868520008AD
:101CE0002DE9F04F06468A4691461F46099C00257D
:101CF0002CE0781B401EC1B20A20FFF741FFB9FB60
:101D0000F0F00A21B0FBF1F201FB1208B8F1000F6C
:101D10000CD1A34604EBDB71491001FB0561C8B28D
:101D2000234630225146FFF75DFF0DE0A34604EB4A
:101D3000DB71491001FB0561C8B208F13001CAB27C
:101D400023465146FFF74EFF681CC5B2BD42D0DBAB
:101D5000BDE8F08FF0B506460F4614461D4613E069
:101D600022782B4639463046FFF73CFF284605EBE4
:101D7000D07106EB6101CEB2C5F18000B04202DA4B
:101D80000026B81CC7B2641C2078202802DB20780B
:101D90007E28E5DDF0BD00002DE9FF4F8BB08146C8
:101DA0001C4600200890CDF80C900C980290A2469A
:101DB000E11704EB1171091104EBD4724FEA620BC5
:101DC0004FEAEB720BEB5272D210ABEBC2020094F3
:101DD0000AB1012200E00022114404EBD472521037
:101DE00001FB02F00194FEF70CFE07460022444B73
:101DF000FEF78AFD0546FEF791FE04900498FEF773
:101E000011FE0746FEF7EFFD06460499FEF72EFC8D
:101E100005460021FEF79EFE05D04FF07E51049846
:101E2000FEF7CFFB04900498FEF715FEC0B20590B4
:101E30005CE00898FEF7E0FD07460D98FEF7DCFD34
:101E400080460499FEF715FC06463946FEF7B9FBB5
:101E50000546FEF700FEC0B206900898401CC0B2CE
:101E6000089000200A903EE0202C06D125490698D3
:101E700001EB00110A98085C07900020099017E018
:101E8000079800F0010020B148460C99FFF76AFD61
:101E900003E048460C99FFF7B9FC079840100790FB
:101EA0000C98401CC0B20C900998401CC0B209901C
:101EB00009980828E4DB09F1010000F0FF09039903
:101EC000A9EB010104EBD472B1EB620F05D1DDF88F
:101ED0000C9002980830C0B2029002980C900A98B8
:101EE000401CC0B20A900A981028BDDB0598411E1C
:101EF000C9B2059100289CD10FB0BDE8F08F000059
:101F000000003040400000202DE9FC5F05460F46F0
:101F100090461C46019500972046E21704EB52724A
:101F2000D2102146E31704EB5373DB10A4EBC30379
:101F30000BB1012300E000231A4402FB08F202F077
:101F4000FF0B00262AE00C9810F806A04FF00009BD
:101F500013E00AF0010020B139462846FFF702FDE0
:101F600003E039462846FFF751FC4FEA6A0A781C1D
:101F7000C7B209F1010000F0FF09B9F1080FE8DB71
:101F8000681CC5B20198281A404504D1019D0098EB
:101F90000830C0B20090009F701CC6B25E45D2DB14
:101FA000FFF7FAFDBDE8FC9F70B505460C46FFF74C
:101FB000A9FB782000F01EF9FFF7C8FB1CB14020F8
:101FC00000F018F902E0002000F014F9FFF7BEFB62
:101FD000284600F00FF9FFF7B9FBFFF7A7FB70BD2C
:101FE00010B504A002F0D8FA4FF4FA7001F040FEE8
:101FF00010BD00002B2B2B007047000008B50121FD
:10200000042000F07BF80121082000F077F801217E
:10201000102000F073F80121202000F06FF801215A
:10202000402000F06BF80121802000F067F80121CA
:10203000080200F063F84FF6FF70ADF800000020D2
:102040008DF8030003208DF8020069461C48FFF755
:10205000C3F869461B48FFF7BFF869461A48FFF7FF
:10206000BBF869461948FFF7B7F869461848FFF703
:10207000B3F869461748FFF7AFF869461648FFF707
:10208000ABF80021042000F039F80021082000F00E
:1020900035F80021102000F031F80021202000F058
:1020A0002DF80021402000F029F80021802000F0C8
:1020B00025F800214FF4807000F020F808BD0000E2
:1020C00000080140000C01400010014000140140D4
:1020D00000180140001C01400020014029B1064ABF
:1020E000D2690243044BDA6104E0034AD2698243B5
:1020F000014BDA61704700000010024029B1064A26
:1021000092690243044B9A6104E0034A9269824354
:10211000014B9A61704700000010024030B5002169
:102120000022002400232D4D6D6805F00C0121B123
:10213000042905D0082923D105E0294D056022E0B6
:10214000274D05601FE0254D6D6805F47012234D85
:102150006D6805F48034022505EB92421CB9214DCF
:10216000554305600BE01D4D6D6805F400351DB14C
:102170001C4D5543056002E0194D5543056002E0D2
:10218000174D056000BF00BF144D6D6805F0F001EC
:102190000909154D6B5C0568DD4045600F4D6D68A4
:1021A00005F4E061090A104D6B5C4568DD4085600F
:1021B0000A4D6D6805F46051C90A0B4D6B5C4568AA
:1021C000DD40C560054D6D6805F44041890B074D44
:1021D0006B5CC568B5FBF3F5056130BD00100240CE
:1021E00000127A0000093D00A4010020B401002083
:1021F0007047000070B5044620211048FFF777F8BB
:10220000002517E004F0800020B180210B48FFF783
:1022100070F803E080210948FFF769F8202107489A
:10222000FFF767F820210548FFF761F86006040E04
:10223000681CC5B2082DE5DB70BD00000008014038
:1022400010B500F001F810BD0CB500200190009011
:102250002548006840F480302349086000BF2248C8
:10226000006800F4003000900198401C0190009834
:1022700018B90198B0F5A06FF1D11B48006800F4BF
:10228000003010B10120009001E000200090009883
:10229000012828D11548006840F010001349086053
:1022A0000846006820F003000860084600680860DF
:1022B0000D4840680C494860084640684860084638
:1022C000406848600846406820F0030048600846BF
:1022D000406840F00100486000BF0348406800F0DB
:1022E0000C000428F9D10CBD00100240002002406F
:1022F00010B52848007800284AD02748C0792649D8
:10230000C978884201D000F0DFFA23488079224959
:102310000978884219D0204800780A2190FBF1F012
:10232000C4B2202322462B20FFF736FD1A4800783E
:102330000A2190FBF1F201FB1200C4B220232246D5
:102340003B20FFF729FDFFF727FC1348407912498E
:102350004978884219D0104840780A2190FBF1F062
:10236000C4B2202322465B20FFF716FD0A484078BE
:102370000A2190FBF1F201FB1200C4B22023224695
:102380006B20FFF709FDFFF707FC002001490870EB
:1023900010BD000008000020BC03002010B5102371
:1023A00006A201211846FFF7D5FC29237222192124
:1023B0000C20FFF7F5FAFFF7EFFB10BD57616974CA
:1023C000696E6720576966690000000010B5102328
:1023D00003A218211846FFF7BDFCFFF7DDFB10BD77
:1023E00057616974696E6720576561740000000069
:1023F00010B5FFF7F3F9062001F03AFC1C484078CD
:102400000A2190FBF1F0C4B2202322465B20FFF7A3
:10241000C3FC174840780A2190FBF1F201FB12003F
:10242000C4B2202322466B20FFF7B6FC20230A22E9
:1024300011464B20FFF7B0FC0D4800780A2190FBB5
:10244000F1F0C4B2202322462B20FFF7A5FC084858
:1024500000780A2190FBF1F201FB1200C4B22023A4
:1024600022463B20FFF798FCFFF796FB10BD0000CB
:10247000BC03002008B5DA48007A18B1D848007AC1
:1024800001280ED1D74828231A4612210090002097
:10249000FFF73AFD0C23D4A22D210846FFF75AFC82
:1024A0007DE1CF48007A04280ED1D14828231A466E
:1024B000122100900020FFF727FD0C23CDA22D2133
:1024C0000846FFF747FC6AE1C548007A05280BD0AB
:1024D000C348007A062807D0C148007A072803D0ED
:1024E000BF48007A08280ED1C44828231A46122172
:1024F00000900020FFF708FD0C23BEA22D21084606
:10250000FFF728FC4BE1B648007A09280ED1BC48F9
:1025100028231A46122100900020FFF7F5FC0C2317
:10252000B8A22D210846FFF715FC38E1AC48007A27
:102530000A280ED1B64828231A46122100900020FE
:10254000FFF7E2FC0C23B3A22D210846FFF702FCA3
:1025500025E1A348007A0B280ED1B04828231A465B
:10256000122100900020FFF7CFFC0C23ACA22D21FC
:102570000846FFF7EFFB12E19948007A0C280ED1CC
:10258000A94828231A46122100900020FFF7BCFC1E
:102590000C23A6A22D210846FFF7DCFBFFE09048A4
:1025A000007A0D2807D08E48007A0E2803D08C4878
:1025B000007A0F280ED19F4828231A461221009036
:1025C0000020FFF7A1FC0C239BA22D210846FFF75A
:1025D000C1FBE4E08248007A102807D08048007AE6
:1025E000112803D07E48007A12280ED1944828235F
:1025F0001A46122100900020FFF786FC0C2391A2BE
:102600002D210846FFF7A6FBC9E07548007A14287B
:102610000ED18E4828231A46122100900020FFF781
:1026200073FC0C238AA22D210846FFF793FBB6E02A
:102630006B48007A15280ED1874828231A461221A4
:1026400000900020FFF760FC0C2384A22D21084697
:10265000FFF780FBA3E06248007A16280BD06048A1
:10266000007A172807D05E48007A182803D05C4803
:10267000007A19280ED17B4828231A46122100908F
:102680000020FFF741FC0C2377A22D210846FFF71D
:1026900061FB84E05248007A1A280BD05048007A37
:1026A0001B2807D04E48007A1C2803D04C48007ADB
:1026B0001D280ED16E4828231A46122100900020B2
:1026C000FFF722FC0C236BA22D210846FFF742FBEB
:1026D00065E04348007A1E2803D04148007A1F284D
:1026E0000ED1674828231A46122100900020FFF7D8
:1026F0000BFC0C2363A22D210846FFF72BFB4EE0B9
:102700003748007A20280ED1604828231A46122123
:1027100000900020FFF7F8FB0C235DA22D21084656
:10272000FFF718FB3BE02E48007A21280ED15A48CB
:1027300028231A46122100900020FFF7E5FB0C2306
:1027400056A22D210846FFF705FB28E02448007A11
:10275000222807D02248007A232803D02048007A74
:1027600023280ED1504828231A4612210090002019
:10277000FFF7CAFB0C234DA22D210846FFF7EAFA0A
:102780000DE04D4828231A46122100900020FFF743
:10279000BBFB0C2349A22D210846FFF7DBFA1048AA
:1027A0000C231E2142683220FFF7D4FA0C480C2378
:1027B0001E2102684920FFF7CDFA42480C231A4631
:1027C0002D2100907120FFF79FFB0C200090044802
:1027D000427A02232D216420FFF782FA08BD00000F
:1027E000CC030020E05F000853756E6E7900000096
:1027F000A8600008436C6F75647900007061000880
:10280000386200084F7665726361737400000000DF
:102810005865000853686F776572000020660008ED
:102820005468756E64657200E86600084861696CFA
:1028300000000000B06700085261696E00000000EF
:102840007868000853746F726D000000086A000811
:10285000536C656574000000D06A00085320536E05
:102860006F77000040690008536E6F77000000002A
:10287000606C00084475737473746F726D000000AF
:10288000986B000848617A6500000000006300084A
:1028900057696E6479000000C8630008426C757364
:1028A00074657279000000009064000848757272C7
:1028B0006963616E65000000F06D0008556E6B6E17
:1028C0006F776E00B86E000800B587B01C2208490B
:1028D0006846FDF74FFC0748C0785DF820200C23C0
:1028E00000210846FFF736FAFFF756F907B000BD9A
:1028F000C45F0008BC0300207047000010B51348F7
:10290000006840F00100114908600846406810491D
:1029100008400E494860084600680E4908400B49C7
:1029200008600846006820F4802008600846406877
:1029300020F4FE0048604FF41F008860FFF780FC21
:102940004FF000600449086010BD00000010024014
:102950000000FFF8FFFFF6FE08ED00E010B50121D2
:10296000880700F0DAF800284CD00121880700F031
:10297000C5F801202449087024488078234908714B
:102980000846407848710846007888710846C07843
:10299000C87108468078401C88701D480068401C3B
:1029A0001B49086008460068B0F5967F05D10120F4
:1029B00015494870002016490860144880783C2862
:1029C00020D100201149887008464078401C48708A
:1029D000084640783C2815D1002048700846007809
:1029E000401C08700846007818280BD10020087099
:1029F0000846C078401C072190FBF1F201FB120051
:102A00000249C87010BD000008000020BC0300206F
:102A1000A00100207FB505460C4601210846FFF7BE
:102A20005DFBADF80450ADF800400020ADF80600A5
:102A3000ADF8020069464FF0804000F08BF80122AB
:102A40001146900700F07AF81C208DF80C00002049
:102A50008DF80D0003208DF80E0001208DF80F0079
:102A600003A8FEF783FE0121880700F04AF87FBD26
:102A700010B50121094800F050F868B108480088F5
:102A800040F40040064908800121044800F036F86F
:102A90000021024800F035F810BD0000000400409D
:102AA000000000207FB505460C4601210220FFF7FB
:102AB00015FBADF80450ADF800400020ADF806005D
:102AC000ADF8020069460C4800F044F801221146B6
:102AD000094800F033F81D208DF80C0000208DF817
:102AE0000D0002208DF80E0001208DF80F0003A8C4
:102AF000FEF73CFE7FBD000000040040CA43028296
:102B0000704721B1028842F00102028004E002888D
:102B10004FF6FE731A400280704730B5024600201F
:102B200000230024158A05EA0103958905EA0104BA
:102B300013B10CB1012000E0002030BD1AB183892F
:102B40000B43838102E083898B43838170478184B7
:102B500070470000002202881D4B98420ED01D4B8A
:102B600098420BD0B0F1804F08D01B4B984205D053
:102B70001A4B984202D01A4B984204D14FF68F73E9
:102B80001A404B881A43174B984207D0164B98426D
:102B900004D04FF6FF431A40CB881A4302808B883B
:102BA00083850B8803850A4B98420BD0094B9842CA
:102BB00008D00E4B984205D00D4B984202D00D4BD9
:102BC000984201D10B7A038601238382704700006B
:102BD000002C014000340140000400400008004087
:102BE000000C004000100040001400400040014074
:102BF000004401400048014010B540F225511648FC
:102C000000F03EF800B3144800F0F6F8C4B21348E0
:102C1000008800F40040B8B910480088B0F5FA7F89
:102C200013DA00210E48FFF792FF0C48008818B90C
:102C300001210B48FFF765FF084801880088401C08
:102C4000064A10800748445405E00448008840F4D0
:102C500000400249088010BD0044004000000020F0
:102C600000040040C801002021B1828942F40052D2
:102C7000828104E082894DF6FF731A408281704799
:102C800070B50246002400230025002040F66A1695
:102C9000B14200D100BFC1F3421501F01F0301266C
:102CA00006FA03F3012D02D19689334006E0022D86
:102CB00002D1168A334001E0968A33400C12012675
:102CC00006FA04F41688344013B10CB1012000E078
:102CD000002070BDF0B5034600240026002500202A
:102CE00040F66A17B94200D100BF1846C1F342143A
:102CF00001F01F06012707FA06F5012C01D10C305F
:102D000004E0022C01D1103000E014301AB1076841
:102D10002F43076002E00768AF430760F0BD000083
:102D20002DE9F04786B005460E460024A24600BFB6
:102D3000A1460027B08900B100BF2F462C8A4CF66F
:102D4000FF700440F08804432C82AC894EF6F310E7
:102D50000440B08831890843718908430443AC8139
:102D6000AC8A4FF6FF400440B0890443AC8201A80E
:102D7000FFF7D4F91F48874202D1DDF810A001E027
:102D8000DDF80CA0A88900F4004040B10AEBCA00AD
:102D900000EB0A1031684900B0FBF1F807E00AEBDC
:102DA000CA0000EB0A1031688900B0FBF1F864201A
:102DB000B8FBF0F004012009642101FB1089A88907
:102DC00000F4004040B1322000EBC900B0FBF1F04C
:102DD00000F00700044308E0322000EB09106421F2
:102DE000B0FBF1F000F00F0004432C8106B0BDE809
:102DF000F08700000038014001468888C0F30800D1
:102E00007047C1F308028280704700BFFEE70000F0
:102E100070B50024FFF7E4F8642000F055F905468A
:102E20006FA001F0B9FB04EB8401490001F1160227
:102E300004EB8401490001F10E0027231B21FEF75A
:102E4000CFFD641C0A2000F013FF68A001F0A4FB72
:102E500004EB8401490001F1160204EB84014900EE
:102E600001F10E0027231B21FEF7BAFD641C0A2086
:102E700000F0FEFE5FA001F08FFB04EB840149002F
:102E800001F1160204EB8401490001F10E00272331
:102E90001B21FEF7A5FD641C0A2000F0E9FE59A0E5
:102EA00001F07AFB04EB840149001631CAB204EB4D
:102EB000840149000E31C8B227231B21FEF790FD83
:102EC000641C0A2000F0D4FE04EB84014900163192
:102ED000CAB204EB840149000E31C8B227231B217A
:102EE000FEF77EFD641C0A2000F0C2FE484803681D
:102EF000484849A10268284600F0A0F8284601F099
:102F00004BFB04EB840149001631CAB204EB840187
:102F100049000E31C8B227231B21FEF761FD641C56
:102F20000A2000F0A5FE04EB840149001631CAB264
:102F300004EB840149000E31C8B227231B21FEF7A0
:102F40004FFD641C0A2000F093FE04EB840149004D
:102F50001631CAB204EB840149000E31C8B22723EE
:102F60001B21FEF73DFD641C0A2000F081FE04EBEE
:102F7000840149001631CAB204EB840149000E31C4
:102F8000C8B227231B21FEF72BFD641C0A2000F08A
:102F90006FFE04EB840149001631CAB204EB8401D0
:102FA00049000E31C8B227231B21FEF719FD0A2064
:102FB00000F05EFE284600F059F810231CA22C21D8
:102FC0002020FEF7C7FEFEF7E7FD0A2000F050FEC6
:102FD000FEF704FC0A2000F04BFEFFF7F7F970BD86
:102FE00041542B5253540D0A000000004154453007
:102FF0000D0A000041542B43574D4F44453D310DC0
:103000000A00000041542B43575141500D0A000063
:10301000100000200C00002041542B43574A41501F
:103020003D222573222C222573220D0A0000000068
:10303000436F6E6E65637421000000000FB4084B8F
:1030400010B504A902AA039800F040F9044602A9A9
:10305000002000F0D2FC204610BC5DF814FB0000FC
:10306000FB39000800487047C401002030B528B182
:10307000144C031F002021680A4605E0084630BDB5
:103080009A4203D810465268002AF9D1002800D08D
:1030900041680BD00468A3EB0005A54204D11B686E
:1030A0001C440346046002E0436000E023603AB140
:1030B0001C68D51AA54203D115682C441C605268BF
:1030C0005A6030BDBC0100202DE9F04782460F4C0C
:1030D00010480D4E0E4F001B4FF0000820F0070562
:1030E0004FF0010900221146504600F00BFE002867
:1030F00002D1306810B10020BDE8F0873C60C4E91F
:103100000058C6F80090EDE7C0010020DC07002061
:10311000BC010020D827002002E008C8121F08C107
:10312000002AFAD170477047002001E001C1121F48
:10313000002AFBD1704700002DE9FF5F82B000211B
:10314000DDE90430020DDDF840B0034318D044F649
:103150001050A2F2FF3242431514119801281FD0DB
:10316000A5EB0B00401C5FEA000A4FF000064E4F33
:10317000DFF83891B046504615D5CAF1000413E087
:10318000119801244AA3012801D16FEA0B0102988A
:10319000119AC0E90031C0E9024206B0BDE8F09FD3
:1031A000CBF10000DFE704460021404A491842EB1A
:1031B0000450CDE9001012E0E00707D032463B464C
:1031C00040464946FDF72EFB8046894632463B463F
:1031D00010461946FDF726FB06460F466410002CE4
:1031E000EAD1DDE90401DDE90023BAF1000F06DAD6
:1031F000FDF718FB42464B46FDF714FB05E0FDF7D3
:1032000083FB42464B46FDF77FFB04460E460022F9
:10321000284BFDF76BFC03D84FF0FF30014607E069
:103220000022254B20463146FDF755FAFDF75AFEA0
:10323000102409E0002C0ADB0A220023FDF7AAFC77
:10324000039B30321A55641E50EA0102F2D1641C0D
:10325000039AC4F111031444119A012A03D00122E4
:1032600008430DD10AE0084304D000204FF0110BB1
:10327000119072E7A3EB0B056D1E0DE05B4504DDBD
:103280004FF0000205F1010504E003DA4FF00002FF
:10329000A5F10105002AECD002981199C0E902318C
:1032A000C0E9004579E70000000014400000F03F4D
:1032B000300000000000F0430000E03F30380A28F2
:1032C00001D2012070470020704700002DE9FF4F18
:1032D00095B09B468946064600250FE2252877D102
:1032E00000242746F84A0121059400E0044316F81B
:1032F000013F203B01FA03F01042F7D130782A2831
:1033000011D06FF02F033078A0F13002092A16D8BF
:10331000059A44F0020402EB820203EB42021044DD
:10332000761C0590EFE759F8042B0592002A03DA82
:10333000504244F40054059044F00204761C307866
:103340002E2816D116F8010F44F004042A280DD0B7
:103350006FF02F023078A0F13003092B09D807EB6A
:10336000870302EB4303C718761CF3E759F8047B85
:10337000761C30786C280FD006DC4C2817D06828D3
:103380000DD06A2814D104E0742810D07A280FD107
:103390000DE044F400140AE044F4801401E044F425
:1033A00040147278824202D104F58014761C761C97
:1033B000307866280BD013DC582877D009DC002839
:1033C00075D04528F6D04628F4D047281AD19DE17B
:1033D00018E0632835D0642879D0652812D195E1AA
:1033E000702873D008DC6728F1D069286FD06E2868
:1033F0000DD06F2806D1B5E073282CD0752875D074
:10340000782874D05A46179990476D1C75E1C4F31B
:103410000250022809D003280DD0D9F80010042842
:103420000DD00D6009F1040967E1D9F80010EA1721
:10343000C1E90052F6E7D9F800100D80F2E70D70EF
:10344000F0E719F8041B8DF8001000208DF801003A
:10345000EA46012003E059F804AB4FF0FF30610762
:103460004FF0000102D40DE008F101018846B94295
:103470000FDA8045F8DB1AF808100029F4D108E0CB
:1034800008F1010188468142FADB1AF80810002988
:10349000F6D105985B46A0EB080721463846179AF7
:1034A00000F094FA284400EB080507E04DE029E11C
:1034B0000DE01AF8010B5A4617999047B8F1010828
:1034C000F7D25B4621463846179A13E142E00A22BA
:1034D0000092C4F302524FF0000A022A08D059F8B1
:1034E00004CB032A4FEAEC710AD00DE029E02AE070
:1034F00009F1070121F00702F2E802C1914609E053
:103500000FFA8CFC4FEAEC71042A03D14FFA8CFCC1
:103510004FEAEC71002907DA0A460021DCF1000CC1
:1035200061EB02012D2202E0220504D52B228DF849
:103530000420012203E0E20701D02022F7E79046B1
:1035400059E00A2102E010220DE010214FF0000A9C
:1035500000910BE010224FF0000A44F00404082709
:10356000009203E008224FF0000A0092C4F30252D6
:10357000022A05D059F804CB0021032A08D009E01B
:1035800009F1070121F00702F2E802C1914605E0C6
:103590001FFA8CFC042A01D10CF0FF0C4FF000083C
:1035A000220728D5702806D0009B83F0100353EA29
:1035B0000A0305D00EE040228DF80420012208E025
:1035C0005CEA010206D030228DF804208DF8050057
:1035D00002229046009B83F0080353EA0A030AD1B3
:1035E0005CEA010201D1620705D530228DF8042082
:1035F0004FF001087F1E582804D034A003900EA875
:1036000002900DE036A0F9E753466046009AFDF7B8
:10361000C1FA84460398825C0298401E02900270B0
:103620005CEA0100F0D1029806A9081A00F1200A0C
:10363000600702D524F4803400E00127574502DDFD
:10364000A7EB0A0000E0002000EB0A0100900598BB
:103650004144401A0590E00306D45B462146179A80
:10366000059800F0B3F90544002706E001A85A4682
:10367000C05D179990476D1C7F1C4745F6DBE00342
:103680000CD55B462146179A059800F09FF9054432
:1036900004E030205A46179990476D1C0099481E47
:1036A00000900029F5DC08E0029802995A4600785B
:1036B000491C0291179990476D1CBAF10001AAF1BB
:1036C000010AF1DC65E100000928010030313233E4
:1036D000343536373839616263646566000000004E
:1036E0003031323334353637383941424344454638
:1036F0000000000000F058F90544761C30780028DE
:103700007FF4ECAD19B02846BDE8F08F620700D415
:10371000062709F1070222F0070CFCE80223E14624
:1037200003F000485FEA080C02D00FF2702C0DE0A5
:103730005FEA045C02D50FF2682C07E05FEAC47C04
:1037400002D00FF2602C01E0AFF2700C4FF0FF38A6
:1037500023F00043CDF850C065280CD006DC452886
:1037600009D046281DD047283DD13DE0662818D015
:1037700067287ED138E00021112F01DB112000E005
:10378000781CCDE9000106A90EA8FFF7D5FCDDE9FC
:103790000F010E9A03910021009207F1010A049192
:1037A0004DE04FF000400097CDE9011006A90EA8AA
:1037B000FFF7C2FCDDE90F0203920E9B1199002274
:1037C000DDF80CA00093049211B9791C00EB010AFA
:1037D000B7EB0A0004D4C0F1FF3007F1010A0490EE
:1037E000AAEB0700019044E0012F00DA0127002135
:1037F000112F01DD112000E03846CDE9000106A9B6
:103800000EA8FFF799FCDDE90F010E9A0391002144
:1038100004910092BA4621070CD40399514500DA6D
:103820008A46BAF1010F05DD009AAAF10101515C47
:10383000302908D0B84202DA10F1040F06DA01216B
:10384000CDE9011015E0AAF10101E9E7002805DC46
:10385000049901440491AAEB000102E0411C514586
:1038600000DD8A460499401A401C01904FF0004048
:103870000290200704D40198504501DBCDF8048064
:1038800000208DF84F0002980DF14F07B0F1004F66
:1038900025D02B200E9002984FF0020800280CDA59
:1038A000404202902D200E9007E00A210298FDF779
:1038B0005BF93031029007F8011DB8F10001A8F161
:1038C0000108F2DC02980028EFD1791E0E980870EA
:1038D000307800F0200040F0450007F8020D12A8F3
:1038E000C01B00F107081498007800B1012000EB1C
:1038F0000A01019801EBE07105984144401A401E0D
:103900000590E00306D45B462146179A059800F01F
:103910005DF805441498007818B15A4617999047F5
:103920006D1CE00324D55B462146179A059800F0EC
:103930004DF805441CE00498002807DBDDE903018D
:10394000884203DD0098405C179901E01799302008
:103950005A469047049805F10105401C04900198CF
:10396000401E019004D12E205A46179990476D1C95
:10397000BAF10001AAF1010ADDDC05E017F8010B3C
:103980005A46179990476D1CB8F10001A8F101083B
:10399000F4DC5B462146179A0598ABE62D00000043
:1039A0002B000000200000002DE9F0410446002516
:1039B0001E461746880404D405E039462020B04747
:1039C0006D1C641EF9D52846BDE8F0812DE9F04153
:1039D000044600251E469046C80301D5302700E066
:1039E0002027880404D505E041463846B0476D1CC1
:1039F000641EF9D52846BDE8F0810A68531C0B60A7
:103A000010707047014609B1086808B90020704776
:103A100019B1D1E90120904201D30846F7E702E04D
:103A20008868401C886041B1D1E90120904204D2ED
:103A30008A680868805C2028F2DDD1E90120904284
:103A400002D18868401E88600846E0E770B50446E9
:103A5000002522E02568A08900F4807020B9A068C4
:103A600010B1A068FFF7F2FFA08900F4807028B9B8
:103A7000206918B10A4A206951688847A08900F472
:103A8000007028B9206A18B1054A206A5168884731
:103A900003484168204688472C46002CDAD170BD87
:103AA0003400002070B505460C46002C01DA0020D9
:103AB00070BD2146284600F0EBF8F9E770B50446E2
:103AC0000D4600222946204600F0F3F870BD70B57F
:103AD000044628202168884705461DB1282128462C
:103AE000FCF761FB284670BD10B504460022114664
:103AF000204600F06BF810BD2DE9F0478AB004466F
:103B00000E46154698461C2103A8FCF74CFB0027DF
:103B100000202C490860486004B106B932E00394E3
:103B2000049600200590284A07CA07AB07C3264819
:103B3000FFF7CDFF074607B924E003A800F046FDD4
:103B40008246FFF75FFF81464946384600F00EFC8B
:103B500000B917E0B8F1000F0BD003A8FFF752FF30
:103B6000DDE90410884203D205990398405C00B156
:103B700008E01DB1059903980844286038460AB04A
:103B8000BDE8F08717B13846FFF760FFC4B1019474
:103B900000200290DDE90410884202D205980290CC
:103BA00004E0049810B10498401E02901DB1DDE9B4
:103BB0000101084428600348DDE9011206C000BF86
:103BC0000020DCE72C000020340000202DE9F0412B
:103BD00004460D46164614B90020BDE8F081204683
:103BE000FCF7ECFA471C33462A4639462046FFF7D5
:103BF00083FFF2E770B504460D4604B10DB901200C
:103C000070BDAC4201D10020FAE705E0207808B988
:103C10000020F5E7641C6D1C2078FCF7A5FA064629
:103C20002878FCF7A1FA8642F0D02078FCF79CFABD
:103C300006462878FCF798FA301AE1E770B5044692
:103C400000250948008800F4004058B100200649CA
:103C50000988C1F30E01054A50542146104600F070
:103C600093F80546284670BD00000020C8010020DA
:103C7000002107E042F6E06100BF0A1EA1F1010346
:103C800099B2FAD1021EA0F1010398B2F2D17047A5
:103C900002460B4600210AB900207047916801E0F6
:103CA0005B1E096809B1002BFAD10846F5E72E2002
:103CB00070472DE9F04105460E461746002405B130
:103CC00016B90020BDE8F081AC685FB100E024685F
:103CD0008CB1206A78B13046216AFCF776FA002868
:103CE000F5D108E000E024682CB13046216AFFF7E6
:103CF00081FF0028F7D10CB1206A08B90020E1E764
:103D00002046DFE72DE9F0410B3020F00706104D8B
:103D100019E02068B04215D3B0420AD9871B201D94
:103D2000D4F80480FCF726FAA019C0E900782860CE
:103D300004E060682860201DFCF71CFA201D266046
:103D4000BDE8F081251D2C68002CE2D10020F7E7AA
:103D5000BC010020FEF752F9FDF780FEFDF7D8F90F
:103D6000FEF71CFBFFF754F8FDF7C4FBFDF7C4FAA0
:103D700006E0FEF7BDFA0348407808B1FDF7BCFA4B
:103D8000F7E70000080000202DE9F04705460E4641
:103D90002846FCF713FA82463046FCF70FFA07462E
:103DA000BA4502DA0020BDE8F087BAF1000F02D070
:103DB0000FB90020F7E7BAF1000F02D10FB90020C8
:103DC000F1E7002420E04FF00008A1462819FCF795
:103DD000F5F9B84201D20020E5E715F8090016F818
:103DE000081088420FD104E016F8080008B9281915
:103DF000D9E7484609F101092A5C404608F1010863
:103E0000305C8242F0D0641C2846FCF7D7F9A0420F
:103E1000D9D10020C7E72DE9F04180460C460025A6
:103E20000027E068B0F57A7F02D30020BDE8F0817A
:103E3000E068401CE060A1682068405C5B2800D01E
:103E40005FE0A068401CA0602046FFF7DBFD4CB19E
:103E5000D4E90110884205D2A1682068405C5D2841
:103E600000D13FE01CB1D4E90110884203D3A0681F
:103E7000401EA06045E0A068401EA06000BF04F1A5
:103E80001000FFF724FE064606B93AE015B935469C
:103E9000374602E03E6077603746A068401CA0606D
:103EA0002046FFF7AFFD2146384600F05FFA00B923
:103EB00027E02046FFF7A6FD44B1D4E9011088426F
:103EC00004D2A1682068405C2C28D8D044B1D4E941
:103ED0000110884204D2A1682068405C5D2800D0AF
:103EE0000FE000BFE068401EE06005B16F60202079
:103EF000C8F80C00C8F80850A068401CA060012059
:103F000094E715B12846FFF7A1FD00208EE7024691
:103F10000023002100BF23E0505C302806DB505C0A
:103F2000392803DC505C3038034415E0505C4128EC
:103F300006DB505C462803DC505C373803440BE05A
:103F4000505C612806DB505C662803DC505C573807
:103F5000034401E000207047032900D21B01491CE3
:103F60000429D9D31846F6E72DE9F04391B08046ED
:103F70000C4600BF00201090FFF799FE81460025F7
:103F80000CB1206818B9002011B0BDE8F0830025FD
:103F90003CE0A16820680844405D342820D00ADC59
:103FA000A0F12B0009282ED2DFE800F0202D212AD5
:103FB0002D1617181900382816D006DC352810D011
:103FC00036280FD037281ED10DE039280DD04528CE
:103FD0000FD0652817D10BE000BF00BF00BF00BFA6
:103FE00000BF00BF00BF00BF00BF00BF00BF00BFD9
:103FF00000BFA16820680844405D0DF8050003E09B
:104000000DF8059000E00AE000BF6D1C3F2D05D2C1
:1040100024B1A068284461688842BAD300BF002058
:104020000DF8050010A9684600F017FB06460F467C
:1040300068461099884201D10020A5E7C8E90667C3
:10404000144A154B30463946FCF750FD04D86FF042
:104050000040C8F8140011E00022104B30463946E9
:10406000FCF72CFD04D84FF00040C8F8140005E020
:1040700030463946FCF703FDC8F814000820C8F89C
:104080000C00A0686A461099891A0844A0600120B3
:104090007AE700000000C0FFFFFFDF410000E0C141
:1040A0002DE9F04180460C4600260025E068B0F579
:1040B0007A7F02D30020BDE8F081E068401CE06018
:1040C00044B1D4E90110884204D2A1682068405C60
:1040D0007B2800D07DE0A068401CA0602046FFF750
:1040E00091FC4CB1D4E90110884205D2A168206846
:1040F000405C7D2800D15DE01CB1D4E9011088420C
:1041000003D3A068401EA06063E0A068401EA060CA
:1041100000BF04F11000FFF7DAFC074607B958E0CA
:1041200016B93E463D4602E02F607D603D46A068E0
:10413000401CA0602046FFF765FC2146284600F0A1
:104140004EF800B945E02046FFF75CFC286928627C
:104150000020286144B1D4E90110884204D2A1684A
:104160002068405C3A2800D033E0A068401CA06082
:104170002046FFF747FC2146284600F0F7F800B933
:1041800027E02046FFF73EFC44B1D4E90110884205
:1041900004D2A1682068405C2C28BAD044B1D4E98C
:1041A0000110884204D2A1682068405C7D2800D0BC
:1041B0000FE000BFE068401EE06006B1756040207F
:1041C000C8F80C00C8F80860A068401CA060012076
:1041D00071E716B13046FFF739FC00206BE72DE997
:1041E000F84F80460C46A16820680844461CA16828
:1041F00020680844451C002000900027A168206822
:10420000405C222800D0A6E04FF0000AD1460DE025
:1042100028785C2809D1681C2168401A61688842A6
:1042200000D398E009F101096D1C6D1C2068281A63
:104230006168884202D228782228E9D12068281AA9
:104240006168884202D22878222800D083E0A168E1
:1042500020680844281AA0EB090A0AF10100216924
:104260008847074607B976E0009761E030785C2818
:1042700007D016F8010B009908700098401C0090B8
:1042800056E04FF00209A81B012800DA63E07078BD
:10429000662819D008DC222832D02F2832D05C289A
:1042A0002FD0622840D108E06E2814D0722819D08F
:1042B00074281ED0752837D12BE00820009908708B
:1042C0000098401C009030E00C2000990870009885
:1042D000401C009029E00A20009908700098401CBA
:1042E000009022E00D20009908700098401C00907A
:1042F0001BE00920009908700098401C009014E011
:1043000000BF00BF7078009908700098401C0090B2
:104310000BE06A462946304600F0ADF98146B9F116
:10432000000F00D117E000E015E000BF4E4400BFD1
:10433000AE429BD30020009908701020C8F80C00F2
:10434000C8F810702068281AA060A068401CA060FF
:104350000120BDE8F88F17B138466169884716B16A
:104360002068301AA0600020F3E7000070B5054611
:104370000C460CB1206808B9002070BD9CB1A06843
:10438000001D616888420ED8A2682168881804223E
:104390003FA1FBF728FF30B90420E860A068001DAA
:1043A000A0600120E9E79CB1A068401D61688842D7
:1043B0000ED8A26821688818052237A1FBF713FFE1
:1043C00030B90120E860A068401DA0600120D4E75A
:1043D000ACB1A068001D6168884210D8A26821684D
:1043E000881804222EA1FBF7FEFE40B90220E860E7
:1043F00001206861A068001DA0600120BDE76CB1CC
:10440000D4E90110884209D2A1682068405C2228C2
:1044100004D121462846FFF7E2FEAEE7BCB1D4E95D
:104420000110884213D2A1682068405C2D2809D071
:10443000A1682068405C302809DBA1682068405CE6
:10444000392804DC21462846FFF78EFD95E76CB13C
:10445000D4E90110884209D2A1682068405C5B2839
:1044600004D121462846FFF7D6FC86E76CB1D4E993
:104470000110884209D2A1682068405C7B2804D1E1
:1044800021462846FFF70CFE77E7002075E700007D
:104490006E756C6C0000000066616C736500000056
:1044A00074727565000000002DE9F04704008A462B
:1044B00016D054F8047CD4F800903E1F564500D91D
:1044C00056462046FEF7D2FD05468846324621462E
:1044D0005046FFF717FC40B1C0F80090BDE8F087E8
:1044E000BDE8F0470846FEF7EFBD44E9017955B154
:1044F00029686A18211F8A4202D9611B091F296095
:10450000C5F80480EAE7024AC2F80080E6E7000046
:10451000BC01002010B5044621460548FEF771FC99
:1045200000BF0348008800F080000028F9D010BDCB
:10453000004400402DE9F04106460D461446002790
:104540000020134908801348FBF738FE8046414697
:104550001048FBF728FE304600F01EF8ADB1A4B1BC
:104560000CE00A20FFF784FB0948008800F40040B3
:1045700020B12846FFF762FB00B103E0601E80B265
:10458000041EEED100BF04B901273846BDE8F08112
:1045900000000020C80100202DE9F0410646354604
:1045A0002846FBF70BFE074600213046FFF7ECFBE1
:1045B00000B1BF1C002404E015F8010BFFF7AAFFAF
:1045C000641CBC42F8DBBDE8F081000010B5044675
:1045D0001CB1206808B1A06808B1002010BD7CB1F2
:1045E000A068001D616888420AD2A2682168881804
:1045F000032204A1FBF7F7FD10B9A068C01CA0605E
:104600002046EBE7EFBBBF002DE9F04707460D461C
:10461000164698464FF000091FB13846FBF7CEFD0D
:1046200008B9BDE8F0871DB12846FBF7C7FD00B902
:10463000F7E729463846FBF7E5FD044607E010C6D4
:1046400009F1010929460020FBF7DCFD0446002C96
:10465000F5D1C8F8009000BFE3E700B583B00A4683
:104660000021CDE9001101466846FCF730FBDDE989
:10467000000103B000BD2DE9FF5F80468946154665
:1046800000240026C2460020039083460290019039
:10469000A9EB0A00062800DA81E00AF10200FFF720
:1046A00036FC0646B6F55C4F03D3B6F5604F00D234
:1046B00075E0B6F5584F29D3B6F55C4F26D20AF10E
:1046C0000607002000900C200290A9EB07000628A6
:1046D00000DA64E038785C2802D17878752800D058
:1046E0005DE0B81CFFF713FC00900098B0F55C4F3C
:1046F00003D30098B0F5604F00D350E0C6F3090132
:10470000009861F39F2000F5803402E006200290BB
:104710003446802C02D20120039018E0B4F5006FDB
:1047200004D202200390C020019010E0B4F5803F35
:1047300004D203200390E020019008E0B4F5881F24
:1047400004D204200390F020019000E027E00398B9
:10475000401E00F0FF0B0BE004F0BF0040F08000B3
:10476000296801F80B00A409ABF1010000F0FF0B70
:10477000BBF1000FF0DC0398012804DD0198204311
:104780002968087003E004F07F0029680870296830
:10479000039808442860029804B0BDE8F09F002008
:1047A000FAE70000000000001F0000003B000000CE
:1047B0005A0000007800000097000000B5000000DB
:1047C000D4000000F30000001101000030010000DF
:1047D0004E010000000000001F0000003C0000002F
:1047E0005B0000007900000098000000B6000000A7
:1047F000D5000000F40000001201000031010000AB
:104800004F01000000000000000000000000000058
:10481000000000003F4000000000000000003000E9
:10482000400030004000000009000BC03D000BC0FC
:104830003D00090018C024407FE022403180000084
:10484000180024C01B000D803240018003801C40F2
:1048500027401C800740004010006000000000005E
:10486000000000000000000000001F8020404020E9
:104870000000402020401F800000000009000600CA
:104880001F80060009000000040004003F800400AF
:1048900004000000001000600000000000000000A4
:1048A00004000400040004000400000000000040B4
:1048B0000000000000000000002001C006003800D9
:1048C000400000001F802040204020401F8000004A
:1048D000000010403FC000400000000018C0214010
:1048E00022402440184000001080204024402440F2
:1048F0001B80000002000D0011003FC001400000BD
:104900003C80244024402440238000001F80244019
:1049100024403440038000003000200027C03800CD
:10492000200000001B802440244024401B80000005
:104930001C0022C0224022401F8000000000000016
:1049400008400000000000000000000004600000BB
:1049500000000000000004000A0011002080404018
:10496000090009000900090009000000000040409A
:10497000208011000A0004001800200023402400B9
:10498000180000001F802040274029401F400000E1
:10499000004007C039000F0001C0004020403FC068
:1049A000244024401B8000001F80204020402040E5
:1049B0003080000020403FC0204020401F80000089
:1049C00020403FC024402E4030C0000020403FC067
:1049D00024402E00300000000F00108020402240B4
:1049E0003380020020403FC0040004003FC020404C
:1049F000204020403FC02040204000000060202098
:104A000020203FC02000200020403FC024400B0059
:104A100030C0204020403FC020400040004000C047
:104A20003FC03C0003C03C003FC0000020403FC0EE
:104A30000C4023003FC020001F8020402040204029
:104A40001F80000020403FC02440240018000000C8
:104A50001F802140214020E01FA0000020403FC0D7
:104A60002440260019C0004018C0244024402240A1
:104A700031800000300020403FC020403000000066
:104A800020003F80004000403F80200020003E008A
:104A900001C0070038002000380007C03C0007C0F4
:104AA00038000000204039C0060039C02040000016
:104AB0002000384007C0384020000000304021C0AE
:104AC0002640384020C00000000000007FE0402069
:104AD00040200000000070000C0003800040000037
:104AE0000000402040207FE0000000000000200087
:104AF0004000200000000000001000100010001016
:104B00000010001000000000400000000000000045
:104B1000000002800540054003C0004020003FC067
:104B2000044004400380000000000380044004406F
:104B30000640000000000380044024403FC00040C5
:104B400000000380054005400340000000000440D1
:104B50001FC0244024402000000002E00550055002
:104B60000650042020403FC00440040003C0004021
:104B70000000044027C000400000000000100010AA
:104B8000041027E00000000020403FC00140070063
:104B900004C00440204020403FC0004000400000CE
:104BA00007C0040007C0040003C00000044007C0A1
:104BB0000440040003C0004000000380044004409F
:104BC00003800000041007F004500440038000003C
:104BD000000003800440045007F00010044007C0A8
:104BE00002400400040000000000064005400540AB
:104BF00004C00000000004001F80044000400000CA
:104C0000040007800040044007C000400400070083
:104C100004C0018006000400060001C0070001C0B6
:104C200006000000044006C0010006C00440000069
:104C30000410071004E00180060004000000044096
:104C400005C00640044000000000000004007BE0B6
:104C500040200000000000000000FFF00000000005
:104C6000000040207BE004000000000040008000C5
:104C70004000200020004000000000000000000074
:104C800000000000000000000000000000001FCC39
:104C9000000C000000000000000008003000600070
:104CA0000800300060000000022003FC1E200220EB
:104CB00003FC1E200220000000000E1811043FFF1C
:104CC00010840C78000000000F0010840F3800C022
:104CD000077818840078000000780F8410C411242D
:104CE0000E9800E4008400080800680070000000CE
:104CF000000000000000000000000000000007E0CD
:104D00001818200440020000000040022004181877
:104D100007E00000000000000240024001800FF0A8
:104D200001800240024000000080008000800FF8F7
:104D300000800080008000000001000D000E0000D7
:104D400000000000000000000000008000800080E3
:104D500000800080008000800000000C000C00003B
:104D600000000000000000000000000600180060C5
:104D70000180060018002000000007F00808100459
:104D80001004080807F000000000080408041FFCD5
:104D9000000400040000000000000E0C1014102499
:104DA000104411840E0C000000000C1810041104B3
:104DB000110412880C700000000000E0032004249D
:104DC00008241FFC0024000000001F981084110418
:104DD0001104108810700000000007F0088811040A
:104DE000110418880070000000001C00100010FC66
:104DF00013001C001000000000000E381144108445
:104E0000108411440E38000000000700088C104484
:104E10001044088807F00000000000000000030CA8
:104E2000030C00000000000000000000000101066B
:104E3000000000000000000000000080014002208F
:104E400004100808100400000220022002200220A2
:104E500002200220022000000000100408080410B4
:104E6000022001400080000000000E001200100C23
:104E7000106C10800F00000003E00C1813E41424E1
:104E800017C4082807D000000004003C03C41C40DD
:104E9000074000E4001C000410041FFC110411046E
:104EA00011040E880070000003E00C1810041004B8
:104EB000100410081C10000010041FFC1004100443
:104EC0001004080807F0000010041FFC110411046E
:104ED00017C410040818000010041FFC110411006E
:104EE00017C010000800000003E00C1810041004A4
:104EF00010441C780040000010041FFC1084008047
:104F0000008010841FFC10040000100410041FFC1B
:104F10001004100400000000000300011001100143
:104F20001FFE10001000000010041FFC110403807D
:104F30001464181C1004000010041FFC100400046A
:104F400000040004000C000010041FFC1F0000FC03
:104F50001F001FFC1004000010041FFC0C040300C1
:104F600000E010181FFC100007F0080810041004DF
:104F70001004080807F0000010041FFC10841080C3
:104F8000108010800F00000007F008181024102473
:104F9000101C080A07F2000010041FFC1104110085
:104FA00011C011300E0C000400000E1C11041084FE
:104FB000108410441C3800001800100010041FFC5E
:104FC000100410001800000010001FF81004000466
:104FD000000410041FF8100010001E0011E0001C57
:104FE000007013801C0010001FC0103C00E01F0068
:104FF00000E0103C1FC000001004180C163401C063
:1050000001C01634180C100410001C00130400FC1E
:1050100013041C00100000000804101C106410840D
:1050200013041C04101800000000000000007FFEA4
:105030004002400240020000000030000C000380EB
:105040000060001C0003000000004002400240021B
:105050007FFE000000000000000000002000400073
:10506000400040002000000000010001000100019C
:10507000000100010001000100004000400020008C
:10508000000000000000000000000098012401441E
:105090000144014400FC000410001FFC00880104CE
:1050A0000104008800700000000000700088010406
:1050B0000104010400880000000000700088010461
:1050C000010411081FFC0004000000F80144014421
:1050D0000144014400C800000000010401040FFC69
:1050E0001104110411001800000000D60129012943
:1050F000012901C90106000010041FFC0084010001
:105100000100010400FC000400000104190419FC62
:105110000004000400000000000000030001010181
:10512000190119FE0000000010041FFC00240040BB
:1051300001B4010C010400000000100410041FFC65
:105140000004000400000000010401FC010401004F
:1051500001FC0104010000FC010401FC00840100C9
:105160000100010400FC0004000000F80104010437
:105170000104010400F80000010101FF00850104A1
:105180000104008800700000000000700088010425
:105190000104010501FF00010104010401FC008478
:1051A0000104010001800000000000CC0124012462
:1051B000012401240198000000000100010007F80B
:1051C0000104010400000000010001F800040004D3
:1051D0000004010801FC0004010001800170000CC2
:1051E000001001600180010001F0010C003001C0DD
:1051F0000030010C01F0010000000104018C00747A
:105200000170018C01040000010101810171000E97
:10521000001801600180010000000184010C0134CC
:1052200001440184010C00000000000000000000A7
:1052300001003EFC400240020000000000000000AF
:10524000FFFF0000000000000000400240023EFCA2
:1052500001000000000000000000600080008000ED
:10526000400040002000200000000000000000007E
:10527000000000000000000000000000000000002E
:10528000000000000000000000000000000000001E
:1052900000000000000000000000000F80380FFE3A
:1052A000380F8038000000000000000000000000FF
:1052B0000000000000000100000600000C000038A3
:1052C00000003100000600000C0000380000300033
:1052D000000000000000000061800067F807F9800E
:1052E0000061800061800061800061800067F807D4
:1052F000F98000618000000000000000000001C093
:10530000E003E0F00630080418081FFFFE040E0852
:105310000787F00381E000000000000001F00006B4
:105320000C00040408060C7001F9C0000E00003BDC
:10533000E000EC18070808040C180003E000000067
:105340000001E00007F003F818041C080417080720
:10535000E1D003C0E00023B0003C080020080000BA
:1053600010000000000000010000310000320000C9
:105370001C00000000000000000000000000000011
:10538000000000000000000000000000000000001D
:1053900000000000000000007F0001FFC00780F057
:1053A0000C00181000042000020000000000002083
:1053B00000021000040C00180780F001FFC0007FFD
:1053C00000000000000000000000000000000000DD
:1053D000000000004200006600006600003C000083
:1053E000180003FFC0001800003C000066000066C3
:1053F0000000420000000000080000080000080053
:1054000000080000080001FFC000080000080000BC
:105410000800000800000800000000000001000073
:105420003100003200001C000000000000000000FD
:10543000000000000000000000000000000000006C
:10544000080000080000080000080000080000082C
:10545000000008000008000008000008000000002C
:105460000000000000000000380000380000380094
:10547000000000000000000000000000000000002C
:105480000000000000000000000600001C0000708A
:10549000000180000E0000380000C0000700001C62
:1054A0000000300000000000000000007F8001FFCD
:1054B000E0038070060018040008040008060018C5
:1054C00003807001FFE0007F80000000000000000A
:1054D000000001000801000801000803FFF807FFB1
:1054E000F8000008000008000008000000000000AC
:1054F00000000001C03802C05804009804011804DC
:105500000218040418061C1803F81801E0F800003B
:105510000000000000000001C0E003C0F00400082B
:1055200004080804080806180803F41801E7F00046
:1055300001E0000000000000000000000300000D7A
:105540000000110000610000810803010807FFF856
:105550000FFFF80001080001080000000000000033
:1055600000E007FCD0060808061008061008061020
:1055700008061838060FF00607C0000000000000FB
:10558000000000003F8001FFE0038430020818049F
:105590001008041008041008071810030FF0000783
:1055A000C000000000000000000003C00007000071
:1055B0000600000600F80607F806180006E00007D7
:1055C000000006000000000000000001E1E003F719
:1055D000F0063410041808041808040C08040C0819
:1055E00006161803F3F001C1E000000000000000FF
:1055F000F80003FC30030638040208040208040221
:10560000080404100308F001FFC0007F0000000040
:10561000000000000000000000000000000000008A
:105620007038007038007038000000000000000082
:10563000000000000000000000000000000000006A
:1056400000000000301A00301C00000000000000C4
:105650000000000000000000000000000000000842
:105660000000140000220000410000808001004082
:1056700002002004001008000800000000000000E4
:105680002100002100002100002100002100002154
:105690000000210000210000210000210000000086
:1056A00000000000000008000804001002002001B3
:1056B000004000808000410000220000140000082B
:1056C0000000000000000003C00004C0000400004F
:1056D000080038080F380808380810000C30000798
:1056E000E00003C000000000000000003F8000FF59
:1056F000E0038070020F1006708804C088048308DD
:10570000047F8802C09003012000FE4000000800D2
:1057100000180001F8003E0801C20007020007E27D
:105720000000FE00001FC80001F80000380000085B
:1057300004000807FFF807FFF80408080408080435
:10574000080804080806180803F41801E7F0000127
:10575000E0000000000000003F8001FFE0038070D7
:1057600002001804000804000804000804001006E1
:1057700000200780C000000004000807FFF807FFB2
:10578000F8040008040008040008040018020010CF
:1057900003807001FFE0007F800000000400080724
:1057A000FFF807FFF80408080408080408080408BC
:1057B00008043E080400080600180100600000000C
:1057C00004000807FFF807FFF804080804080004AD
:1057D0000800040800043E000600000600000180E6
:1057E00000000000000000003F8001FFE003807027
:1057F0000600180400080402080402080203F00767
:1058000083F000020000020004000807FFF807FF11
:10581000F80408080008000008000008000008005C
:1058200004080807FFF807FFF8040008000000005C
:10583000000004000804000804000807FFF807FF40
:10584000F80400080400080400080000000000003C
:105850000000000000060000070000010400010431
:10586000000104000307FFFE07FFFC040000040022
:105870000004000004000807FFF807FFF8040C0804
:10588000001800003E0004C7800503C80600F804A5
:10589000003804001800000804000807FFF807FF9C
:1058A000F8040008000008000008000008000008D4
:1058B0000000080000180000600000000400080755
:1058C000FFF807800807FC00007FC00003F800070E
:1058D000C000780007800807FFF807FFF8040008F9
:1058E00004000807FFF807000803C00000E00000FC
:1058F0003800001E000007000001C00400F007FF90
:10590000F8040000000000007F8001FFE0038070C9
:1059100006001804000804000806001803003001FF
:10592000FFE0007F8000000004000807FFF807FF89
:10593000F80404080404000404000404000404003F
:10594000060C0003F80001F0000000000000000059
:105950007F8001FFE0038070060088040088040057
:10596000C806003C03003E01FFE6007F8400000003
:1059700004000807FFF807FFF804080804080004FB
:105980000C00040F00040BC00610F003F03801E017
:105990000800000800000001E0F803F030063010B5
:1059A000041808041808040C08040C08020618025D
:1059B00007F00781E00000000180000600000400FD
:1059C0000004000004000807FFF807FFF8040008BF
:1059D000040000040000060000018000040000072D
:1059E000FFE007FFF00400180000080000080000B6
:1059F0000800000800000804001007FFE004000091
:105A000004000006000007E00007FE00041FE0009D
:105A100001F80000380001E0043E0007C000060065
:105A20000004000004000007E00007FFC0041FF8A6
:105A30000007C007F80007FF80043FF80007C00414
:105A4000F800070000040000000000040008060041
:105A50001807C07805F1C8003E00001F800463E805
:105A60000780F80600180400080000000400000683
:105A7000000007800007E008047C08001FF800070A
:105A8000F800180804E00807000006000004000001
:105A90000000000100080600380400F80403E804D0
:105AA0000F08047C0805F00807C008070018040068
:105AB0006000000000000000000000000000000086
:105AC0000000003FFFFE2000022000022000022014
:105AD000000220000200000000000000000008009A
